:020000020000FC
:100000000FEF04B902E31FEF15B90E943500112765
:1000100015B90E9419000A95B1F702E31FEF15B94F
:100020000E942900112715B90E9419000A95B1F7FD
:10003000E9CF2F933F934F9322E03BE84CEC4A9556
:10004000F1F73A95E1F72A95D1F74F913F912F912A
:1000500008952F933F9324E332EF3A95F1F72A95D1
:10006000E1F700003F912F9108952F933F9320E1F6
:1000700035E93A95F1F72A95E1F73F912F910895E7
:00000001FF
